{
  "transactions": [
    {
      "hash": "0x926c338dda7d0de6c13e7f78dcab59c168368d0153a806101968788c9808529b",
      "transactionType": "CALL",
      "contractName": null,
      "contractAddress": "0x32507ee12d6d6bc170cc98feaaa60b9ed661f135",
      "function": "customExternalCall(address,bytes,uint256)",
      "arguments": [
        "0x00000000219ab540356cBB839Cbe05303d7705Fa",
        "0x22895118000000000000000000000000000000000000000000000000000000000000008000000000000000000000000000000000000000000000000000000000000000e000000000000000000000000000000000000000000000000000000000000001206e6a18befb69af1debadcac5e6433816da7071d6454dfbbebaee6df8627dc9a70000000000000000000000000000000000000000000000000000000000000030b5d4f1fc74ff5a1dace70de3b6316d9b0de067bf7011173bb7305221577ceb6fd5a074aad29dd9580870397cf32c52f800000000000000000000000000000000000000000000000000000000000000000000000000000000000000000000002002000000000000000000000032507ee12d6d6bc170cc98feaaa60b9ed661f13500000000000000000000000000000000000000000000000000000000000000609551c3c20c870d179a257c1a70aba60b05a44c7f08ae4f06386e87753027862e3b9013c9ff1f976d9813dc5826f20a73098e7178cdf39eefe413ca38630b23e4d2a5b37ff6d0694609fb71f9caddcd969ae74ccdb4c6dd7020c7fb9852b3c9f4",
        "40000000000000000000"
      ],
      "transaction": {
        "from": "0x69ab2fbff48316742d0ff8cdba153afe56cd0e8e",
        "to": "0x32507ee12d6d6bc170cc98feaaa60b9ed661f135",
        "gas": "0x1f2a1",
        "value": "0x0",
        "input": "0x29d8540200000000000000000000000000000000219ab540356cbb839cbe05303d7705fa00000000000000000000000000000000000000000000000000000000000000600000000000000000000000000000000000000000000000022b1c8c1227a0000000000000000000000000000000000000000000000000000000000000000001a422895118000000000000000000000000000000000000000000000000000000000000008000000000000000000000000000000000000000000000000000000000000000e000000000000000000000000000000000000000000000000000000000000001206e6a18befb69af1debadcac5e6433816da7071d6454dfbbebaee6df8627dc9a70000000000000000000000000000000000000000000000000000000000000030b5d4f1fc74ff5a1dace70de3b6316d9b0de067bf7011173bb7305221577ceb6fd5a074aad29dd9580870397cf32c52f800000000000000000000000000000000000000000000000000000000000000000000000000000000000000000000002002000000000000000000000032507ee12d6d6bc170cc98feaaa60b9ed661f13500000000000000000000000000000000000000000000000000000000000000609551c3c20c870d179a257c1a70aba60b05a44c7f08ae4f06386e87753027862e3b9013c9ff1f976d9813dc5826f20a73098e7178cdf39eefe413ca38630b23e4d2a5b37ff6d0694609fb71f9caddcd969ae74ccdb4c6dd7020c7fb9852b3c9f400000000000000000000000000000000000000000000000000000000",
        "nonce": "0x9",
        "chainId": "0x88bb0"
      },
      "additionalContracts": [],
      "isFixedGasLimit": false
    }
  ],
  "receipts": [
    {
      "status": "0x1",
      "cumulativeGasUsed": "0x1bb08",
      "logs": [
        {
          "address": "0x00000000219ab540356cbb839cbe05303d7705fa",
          "topics": [
            "0x649bbc62d0e31342afea4e5cd82d4049e7e1ee912fc0889aa790803be39038c5"
          ],
          "data": "0x00000000000000000000000000000000000000000000000000000000000000a000000000000000000000000000000000000000000000000000000000000001000000000000000000000000000000000000000000000000000000000000000140000000000000000000000000000000000000000000000000000000000000018000000000000000000000000000000000000000000000000000000000000002000000000000000000000000000000000000000000000000000000000000000030b5d4f1fc74ff5a1dace70de3b6316d9b0de067bf7011173bb7305221577ceb6fd5a074aad29dd9580870397cf32c52f800000000000000000000000000000000000000000000000000000000000000000000000000000000000000000000002002000000000000000000000032507ee12d6d6bc170cc98feaaa60b9ed661f135000000000000000000000000000000000000000000000000000000000000000800902f500900000000000000000000000000000000000000000000000000000000000000000000000000000000000000000000000000000000000000000000609551c3c20c870d179a257c1a70aba60b05a44c7f08ae4f06386e87753027862e3b9013c9ff1f976d9813dc5826f20a73098e7178cdf39eefe413ca38630b23e4d2a5b37ff6d0694609fb71f9caddcd969ae74ccdb4c6dd7020c7fb9852b3c9f400000000000000000000000000000000000000000000000000000000000000084e74010000000000000000000000000000000000000000000000000000000000",
          "blockHash": "0x8f24b7dc06b0603a2a6d49eb87923b74c8d851aa718aace01064e7ce06ebb02f",
          "blockNumber": "0x7fa9f",
          "transactionHash": "0x926c338dda7d0de6c13e7f78dcab59c168368d0153a806101968788c9808529b",
          "transactionIndex": "0x1",
          "logIndex": "0x0",
          "removed": false
        },
        {
          "address": "0x32507ee12d6d6bc170cc98feaaa60b9ed661f135",
          "topics": [
            "0x08b977dfd744a4b04e46791eae351ad44743c286034283de6637eee2f98495f6",
            "0x00000000000000000000000000000000219ab540356cbb839cbe05303d7705fa"
          ],
          "data": "0x00000000000000000000000000000000000000000000000000000000000000400000000000000000000000000000000000000000000000022b1c8c1227a0000000000000000000000000000000000000000000000000000000000000000001a422895118000000000000000000000000000000000000000000000000000000000000008000000000000000000000000000000000000000000000000000000000000000e000000000000000000000000000000000000000000000000000000000000001206e6a18befb69af1debadcac5e6433816da7071d6454dfbbebaee6df8627dc9a70000000000000000000000000000000000000000000000000000000000000030b5d4f1fc74ff5a1dace70de3b6316d9b0de067bf7011173bb7305221577ceb6fd5a074aad29dd9580870397cf32c52f800000000000000000000000000000000000000000000000000000000000000000000000000000000000000000000002002000000000000000000000032507ee12d6d6bc170cc98feaaa60b9ed661f13500000000000000000000000000000000000000000000000000000000000000609551c3c20c870d179a257c1a70aba60b05a44c7f08ae4f06386e87753027862e3b9013c9ff1f976d9813dc5826f20a73098e7178cdf39eefe413ca38630b23e4d2a5b37ff6d0694609fb71f9caddcd969ae74ccdb4c6dd7020c7fb9852b3c9f400000000000000000000000000000000000000000000000000000000",
          "blockHash": "0x8f24b7dc06b0603a2a6d49eb87923b74c8d851aa718aace01064e7ce06ebb02f",
          "blockNumber": "0x7fa9f",
          "transactionHash": "0x926c338dda7d0de6c13e7f78dcab59c168368d0153a806101968788c9808529b",
          "transactionIndex": "0x1",
          "logIndex": "0x1",
          "removed": false
        }
      ],
      "logsBloom": "0x00000000000000000000400000000000000000000000000000000000000000000000000001000000000000004000000000000000000000000000000000000000000000000000000000000000000000000000000000000000000000000000000000000000010000000000800000000000000000000400000000000000000000000000000020000000000000000000000000000000000000000204000000480000000000000000000000020000000000000000000000000000400000000000000000000000000000000000000000000000000000000000000000000000000000000000000000000000000000000000000000000008000000000000000000000000",
      "type": "0x2",
      "transactionHash": "0x926c338dda7d0de6c13e7f78dcab59c168368d0153a806101968788c9808529b",
      "transactionIndex": "0x1",
      "blockHash": "0x8f24b7dc06b0603a2a6d49eb87923b74c8d851aa718aace01064e7ce06ebb02f",
      "blockNumber": "0x7fa9f",
      "gasUsed": "0x16900",
      "effectiveGasPrice": "0x4253fd88",
      "blobGasUsed": "0x0",
      "from": "0x69ab2fbff48316742d0ff8cdba153afe56cd0e8e",
      "to": "0x32507ee12d6d6bc170cc98feaaa60b9ed661f135",
      "contractAddress": null
    }
  ],
  "libraries": [],
  "pending": [],
  "returns": {},
  "timestamp": 1748896131,
  "chain": 560048,
  "commit": "bb1814c"
}