{
  "transactions": [
    {
      "hash": "0x32aa6d2ae4020066f582537d851876915aa68a2acb81e74d9fab67e8412e3134",
      "transactionType": "CALL",
      "contractName": null,
      "contractAddress": "0x32507ee12d6d6bc170cc98feaaa60b9ed661f135",
      "function": "customExternalCall(address,bytes,uint256)",
      "arguments": [
        "0x00000000219ab540356cBB839Cbe05303d7705Fa",
        "0x22895118000000000000000000000000000000000000000000000000000000000000008000000000000000000000000000000000000000000000000000000000000000e00000000000000000000000000000000000000000000000000000000000000120fe6ea9840a5bd6094e39c003f6c6268ef53c1652b30360f667b6cedbe3efe2f400000000000000000000000000000000000000000000000000000000000000308a72f5d0388922ba7c07ac1afa5ba8a95557823793956632aab4d143cce621d5d338d143aa8842cf91042e12a1f76a8e0000000000000000000000000000000000000000000000000000000000000000000000000000000000000000000000200200000000000000000000006600132200559d6b02e7d2fdcc865faeb6e96ec70000000000000000000000000000000000000000000000000000000000000060a70fb9669c48d74331ef98ff125879be779ef08cdfd6bd85caffbf9ca0bfb2e528a93dcd649fe9dc812fcf102abbb1fb06d1f8fe9a60de0564e0bca17818b7e2c77f11268b17dcc0434774867174157c16ed45c1ae7095373d48ccf1b3a5084c",
        "32000000000000000000"
      ],
      "transaction": {
        "from": "0x69ab2fbff48316742d0ff8cdba153afe56cd0e8e",
        "to": "0x32507ee12d6d6bc170cc98feaaa60b9ed661f135",
        "gas": "0x1f27f",
        "value": "0x0",
        "input": "0x29d8540200000000000000000000000000000000219ab540356cbb839cbe05303d7705fa0000000000000000000000000000000000000000000000000000000000000060000000000000000000000000000000000000000000000001bc16d674ec80000000000000000000000000000000000000000000000000000000000000000001a422895118000000000000000000000000000000000000000000000000000000000000008000000000000000000000000000000000000000000000000000000000000000e00000000000000000000000000000000000000000000000000000000000000120fe6ea9840a5bd6094e39c003f6c6268ef53c1652b30360f667b6cedbe3efe2f400000000000000000000000000000000000000000000000000000000000000308a72f5d0388922ba7c07ac1afa5ba8a95557823793956632aab4d143cce621d5d338d143aa8842cf91042e12a1f76a8e0000000000000000000000000000000000000000000000000000000000000000000000000000000000000000000000200200000000000000000000006600132200559d6b02e7d2fdcc865faeb6e96ec70000000000000000000000000000000000000000000000000000000000000060a70fb9669c48d74331ef98ff125879be779ef08cdfd6bd85caffbf9ca0bfb2e528a93dcd649fe9dc812fcf102abbb1fb06d1f8fe9a60de0564e0bca17818b7e2c77f11268b17dcc0434774867174157c16ed45c1ae7095373d48ccf1b3a5084c00000000000000000000000000000000000000000000000000000000",
        "nonce": "0xb",
        "chainId": "0x88bb0"
      },
      "additionalContracts": [],
      "isFixedGasLimit": false
    },
    {
      "hash": "0x07e1ced90a69b42baca36b23d4f434c068b5d50196a16977b4bcd2c1f7330709",
      "transactionType": "CALL",
      "contractName": null,
      "contractAddress": "0x32507ee12d6d6bc170cc98feaaa60b9ed661f135",
      "function": "customExternalCall(address,bytes,uint256)",
      "arguments": [
        "0x00000000219ab540356cBB839Cbe05303d7705Fa",
        "0x22895118000000000000000000000000000000000000000000000000000000000000008000000000000000000000000000000000000000000000000000000000000000e0000000000000000000000000000000000000000000000000000000000000012001a955c99e2ac5a42c5d646e6fa5086df2c2492ea37da47b3c540d4705f5c34500000000000000000000000000000000000000000000000000000000000000308ea3270ba3ea4311f7e10c8e415f283c553e9b7871584ed9a2c99584999315ab83476252c620f36e4c3500f726b3329f0000000000000000000000000000000000000000000000000000000000000000000000000000000000000000000000200200000000000000000000006600132200559d6b02e7d2fdcc865faeb6e96ec70000000000000000000000000000000000000000000000000000000000000060b7815c0d75a8e707cca1b53fdd04347c09bfcae03d44f6dc80706782af2f0b482e0bff21ffe818de9b1b9dc8c3e8402104cc6dfea8dd0c25fce7e01d490543fb4106b669fcf47a77ef0e75ef5d1dd588b54b469f5ae446a3d32ddff9c9c881d3",
        "32000000000000000000"
      ],
      "transaction": {
        "from": "0x69ab2fbff48316742d0ff8cdba153afe56cd0e8e",
        "to": "0x32507ee12d6d6bc170cc98feaaa60b9ed661f135",
        "gas": "0x242ba",
        "value": "0x0",
        "input": "0x29d8540200000000000000000000000000000000219ab540356cbb839cbe05303d7705fa0000000000000000000000000000000000000000000000000000000000000060000000000000000000000000000000000000000000000001bc16d674ec80000000000000000000000000000000000000000000000000000000000000000001a422895118000000000000000000000000000000000000000000000000000000000000008000000000000000000000000000000000000000000000000000000000000000e0000000000000000000000000000000000000000000000000000000000000012001a955c99e2ac5a42c5d646e6fa5086df2c2492ea37da47b3c540d4705f5c34500000000000000000000000000000000000000000000000000000000000000308ea3270ba3ea4311f7e10c8e415f283c553e9b7871584ed9a2c99584999315ab83476252c620f36e4c3500f726b3329f0000000000000000000000000000000000000000000000000000000000000000000000000000000000000000000000200200000000000000000000006600132200559d6b02e7d2fdcc865faeb6e96ec70000000000000000000000000000000000000000000000000000000000000060b7815c0d75a8e707cca1b53fdd04347c09bfcae03d44f6dc80706782af2f0b482e0bff21ffe818de9b1b9dc8c3e8402104cc6dfea8dd0c25fce7e01d490543fb4106b669fcf47a77ef0e75ef5d1dd588b54b469f5ae446a3d32ddff9c9c881d300000000000000000000000000000000000000000000000000000000",
        "nonce": "0xc",
        "chainId": "0x88bb0"
      },
      "additionalContracts": [],
      "isFixedGasLimit": false
    }
  ],
  "receipts": [
    {
      "status": "0x1",
      "cumulativeGasUsed": "0x17ee542",
      "logs": [
        {
          "address": "0x00000000219ab540356cbb839cbe05303d7705fa",
          "topics": [
            "0x649bbc62d0e31342afea4e5cd82d4049e7e1ee912fc0889aa790803be39038c5"
          ],
          "data": "0x00000000000000000000000000000000000000000000000000000000000000a0000000000000000000000000000000000000000000000000000000000000010000000000000000000000000000000000000000000000000000000000000001400000000000000000000000000000000000000000000000000000000000000180000000000000000000000000000000000000000000000000000000000000020000000000000000000000000000000000000000000000000000000000000000308a72f5d0388922ba7c07ac1afa5ba8a95557823793956632aab4d143cce621d5d338d143aa8842cf91042e12a1f76a8e0000000000000000000000000000000000000000000000000000000000000000000000000000000000000000000000200200000000000000000000006600132200559d6b02e7d2fdcc865faeb6e96ec7000000000000000000000000000000000000000000000000000000000000000800405973070000000000000000000000000000000000000000000000000000000000000000000000000000000000000000000000000000000000000000000060a70fb9669c48d74331ef98ff125879be779ef08cdfd6bd85caffbf9ca0bfb2e528a93dcd649fe9dc812fcf102abbb1fb06d1f8fe9a60de0564e0bca17818b7e2c77f11268b17dcc0434774867174157c16ed45c1ae7095373d48ccf1b3a5084c00000000000000000000000000000000000000000000000000000000000000085e74010000000000000000000000000000000000000000000000000000000000",
          "blockHash": "0xc367c89c7a63d438fe7f4171d7e405e6228fbce5dc1b2b192a2999246fc85add",
          "blockNumber": "0x80313",
          "transactionHash": "0x32aa6d2ae4020066f582537d851876915aa68a2acb81e74d9fab67e8412e3134",
          "transactionIndex": "0xa",
          "logIndex": "0xa",
          "removed": false
        },
        {
          "address": "0x32507ee12d6d6bc170cc98feaaa60b9ed661f135",
          "topics": [
            "0x08b977dfd744a4b04e46791eae351ad44743c286034283de6637eee2f98495f6",
            "0x00000000000000000000000000000000219ab540356cbb839cbe05303d7705fa"
          ],
          "data": "0x0000000000000000000000000000000000000000000000000000000000000040000000000000000000000000000000000000000000000001bc16d674ec80000000000000000000000000000000000000000000000000000000000000000001a422895118000000000000000000000000000000000000000000000000000000000000008000000000000000000000000000000000000000000000000000000000000000e00000000000000000000000000000000000000000000000000000000000000120fe6ea9840a5bd6094e39c003f6c6268ef53c1652b30360f667b6cedbe3efe2f400000000000000000000000000000000000000000000000000000000000000308a72f5d0388922ba7c07ac1afa5ba8a95557823793956632aab4d143cce621d5d338d143aa8842cf91042e12a1f76a8e0000000000000000000000000000000000000000000000000000000000000000000000000000000000000000000000200200000000000000000000006600132200559d6b02e7d2fdcc865faeb6e96ec70000000000000000000000000000000000000000000000000000000000000060a70fb9669c48d74331ef98ff125879be779ef08cdfd6bd85caffbf9ca0bfb2e528a93dcd649fe9dc812fcf102abbb1fb06d1f8fe9a60de0564e0bca17818b7e2c77f11268b17dcc0434774867174157c16ed45c1ae7095373d48ccf1b3a5084c00000000000000000000000000000000000000000000000000000000",
          "blockHash": "0xc367c89c7a63d438fe7f4171d7e405e6228fbce5dc1b2b192a2999246fc85add",
          "blockNumber": "0x80313",
          "transactionHash": "0x32aa6d2ae4020066f582537d851876915aa68a2acb81e74d9fab67e8412e3134",
          "transactionIndex": "0xa",
          "logIndex": "0xb",
          "removed": false
        }
      ],
      "logsBloom": "0x00000000000000000000400000000000000000000000000000000000000000000000000001000000000000004000000000000000000000000000000000000000000000000000000000000000000000000000000000000000000000000000000000000000010000000000800000000000000000000400000000000000000000000000000020000000000000000000000000000000000000000204000000480000000000000000000000020000000000000000000000000000400000000000000000000000000000000000000000000000000000000000000000000000000000000000000000000000000000000000000000000008000000000000000000000000",
      "type": "0x2",
      "transactionHash": "0x32aa6d2ae4020066f582537d851876915aa68a2acb81e74d9fab67e8412e3134",
      "transactionIndex": "0xa",
      "blockHash": "0xc367c89c7a63d438fe7f4171d7e405e6228fbce5dc1b2b192a2999246fc85add",
      "blockNumber": "0x80313",
      "gasUsed": "0x168e8",
      "effectiveGasPrice": "0x3c901b23",
      "blobGasUsed": "0x0",
      "from": "0x69ab2fbff48316742d0ff8cdba153afe56cd0e8e",
      "to": "0x32507ee12d6d6bc170cc98feaaa60b9ed661f135",
      "contractAddress": null
    },
    {
      "status": "0x1",
      "cumulativeGasUsed": "0x1808840",
      "logs": [
        {
          "address": "0x00000000219ab540356cbb839cbe05303d7705fa",
          "topics": [
            "0x649bbc62d0e31342afea4e5cd82d4049e7e1ee912fc0889aa790803be39038c5"
          ],
          "data": "0x00000000000000000000000000000000000000000000000000000000000000a0000000000000000000000000000000000000000000000000000000000000010000000000000000000000000000000000000000000000000000000000000001400000000000000000000000000000000000000000000000000000000000000180000000000000000000000000000000000000000000000000000000000000020000000000000000000000000000000000000000000000000000000000000000308ea3270ba3ea4311f7e10c8e415f283c553e9b7871584ed9a2c99584999315ab83476252c620f36e4c3500f726b3329f0000000000000000000000000000000000000000000000000000000000000000000000000000000000000000000000200200000000000000000000006600132200559d6b02e7d2fdcc865faeb6e96ec7000000000000000000000000000000000000000000000000000000000000000800405973070000000000000000000000000000000000000000000000000000000000000000000000000000000000000000000000000000000000000000000060b7815c0d75a8e707cca1b53fdd04347c09bfcae03d44f6dc80706782af2f0b482e0bff21ffe818de9b1b9dc8c3e8402104cc6dfea8dd0c25fce7e01d490543fb4106b669fcf47a77ef0e75ef5d1dd588b54b469f5ae446a3d32ddff9c9c881d300000000000000000000000000000000000000000000000000000000000000085f74010000000000000000000000000000000000000000000000000000000000",
          "blockHash": "0xc367c89c7a63d438fe7f4171d7e405e6228fbce5dc1b2b192a2999246fc85add",
          "blockNumber": "0x80313",
          "transactionHash": "0x07e1ced90a69b42baca36b23d4f434c068b5d50196a16977b4bcd2c1f7330709",
          "transactionIndex": "0xb",
          "logIndex": "0xc",
          "removed": false
        },
        {
          "address": "0x32507ee12d6d6bc170cc98feaaa60b9ed661f135",
          "topics": [
            "0x08b977dfd744a4b04e46791eae351ad44743c286034283de6637eee2f98495f6",
            "0x00000000000000000000000000000000219ab540356cbb839cbe05303d7705fa"
          ],
          "data": "0x0000000000000000000000000000000000000000000000000000000000000040000000000000000000000000000000000000000000000001bc16d674ec80000000000000000000000000000000000000000000000000000000000000000001a422895118000000000000000000000000000000000000000000000000000000000000008000000000000000000000000000000000000000000000000000000000000000e0000000000000000000000000000000000000000000000000000000000000012001a955c99e2ac5a42c5d646e6fa5086df2c2492ea37da47b3c540d4705f5c34500000000000000000000000000000000000000000000000000000000000000308ea3270ba3ea4311f7e10c8e415f283c553e9b7871584ed9a2c99584999315ab83476252c620f36e4c3500f726b3329f0000000000000000000000000000000000000000000000000000000000000000000000000000000000000000000000200200000000000000000000006600132200559d6b02e7d2fdcc865faeb6e96ec70000000000000000000000000000000000000000000000000000000000000060b7815c0d75a8e707cca1b53fdd04347c09bfcae03d44f6dc80706782af2f0b482e0bff21ffe818de9b1b9dc8c3e8402104cc6dfea8dd0c25fce7e01d490543fb4106b669fcf47a77ef0e75ef5d1dd588b54b469f5ae446a3d32ddff9c9c881d300000000000000000000000000000000000000000000000000000000",
          "blockHash": "0xc367c89c7a63d438fe7f4171d7e405e6228fbce5dc1b2b192a2999246fc85add",
          "blockNumber": "0x80313",
          "transactionHash": "0x07e1ced90a69b42baca36b23d4f434c068b5d50196a16977b4bcd2c1f7330709",
          "transactionIndex": "0xb",
          "logIndex": "0xd",
          "removed": false
        }
      ],
      "logsBloom": "0x00000000000000000000400000000000000000000000000000000000000000000000000001000000000000004000000000000000000000000000000000000000000000000000000000000000000000000000000000000000000000000000000000000000010000000000800000000000000000000400000000000000000000000000000020000000000000000000000000000000000000000204000000480000000000000000000000020000000000000000000000000000400000000000000000000000000000000000000000000000000000000000000000000000000000000000000000000000000000000000000000000008000000000000000000000000",
      "type": "0x2",
      "transactionHash": "0x07e1ced90a69b42baca36b23d4f434c068b5d50196a16977b4bcd2c1f7330709",
      "transactionIndex": "0xb",
      "blockHash": "0xc367c89c7a63d438fe7f4171d7e405e6228fbce5dc1b2b192a2999246fc85add",
      "blockNumber": "0x80313",
      "gasUsed": "0x1a2fe",
      "effectiveGasPrice": "0x3c901b23",
      "blobGasUsed": "0x0",
      "from": "0x69ab2fbff48316742d0ff8cdba153afe56cd0e8e",
      "to": "0x32507ee12d6d6bc170cc98feaaa60b9ed661f135",
      "contractAddress": null
    }
  ],
  "libraries": [],
  "pending": [],
  "returns": {},
  "timestamp": 1748923550,
  "chain": 560048,
  "commit": "bb1814c"
}